:100000002EC048C047C046C045C044C043C042C0DF
:1000100041C040C03FC03EC03DC03CC0D9C03AC056
:1000200039C038C0ADC036C035C034C033C032C0AE
:1000300031C030C0E1C0ECC0FBC005C112C120C15D
:100040002DC13EC14CC15CC161C166C1A8C2B8C26C
:100050003EC346C3CCC3D1C357C45CC4E4C411245B
:100060001FBECFEFD4E0DEBFCDBF11E0A0E0B1E016
:10007000E8EAFBE002C005900D92A030B107D9F785
:1000800012E0A0E0B1E001C01D92AB34B107E1F78E
:1000900057D188C5B5CF86B129B130E0287130700D
:1000A00093E0220F331F9A95E1F78F73822B089507
:1000B000982F20910A012130A9F0213020F0223020
:1000C00009F045C024C080910001981739F482E0FE
:1000D0008093C00081E080930A01089583E08093BB
:1000E000C00035C0662369F58093010182E08093EA
:1000F0000A01913011F480E405C0923011F080E0E3
:1001000001C082E0809302011092030108956623EA
:10011000C1F4E0910301F0E0E55BFE4F8083809144
:1001200003018F5F8093030190910201809103018D
:10013000981721F481E08093040103C020930A0101
:10014000089510920A0183E08093C00008951092F0
:100150000A010895813011F480E40895823011F08D
:1001600080E0089582E0089517B85498089582E0D9
:1001700084BD85BD80936E0083E187BD789408952A
:100180001F920F920FB60F9211242F933F934F930C
:100190005F936F937F938F939F93AF93BF93EF93EF
:1001A000FF938091C6006091C000617081DFFF9174
:1001B000EF91BF91AF919F918F917F916F915F91DF
:1001C0004F913F912F910F900FBE0F901F90189558
:1001D0001F920F920FB60F9211248F939F93EF935C
:1001E000FF9380910701E82FF0E0EC30F10508F073
:1001F00099C0E65EFF4F099480910501882309F4B8
:1002000051C0809105018C3308F48CC081E033C06B
:1002100091E09093080180910701809309018091FA
:1002200005018E3F11F482E057C0909308013DC054
:10023000809105018F3FB1F1809105018C3308F465
:1002400071C083E018C081E08093080180910701AC
:1002500080930901809105018E3F09F063C084E01D
:100260003BC0809105018F3FE9F0809105018C33FF
:1002700008F458C085E0809307011092050152C030
:1002800081E08093080180910701809309018091AA
:1002900005018E3F09F046C086E01EC08091050131
:1002A0008F3F41F481E080930801809107018093A2
:1002B000090138C0809105018C33A0F187E0DBCFC4
:1002C00081E080930801809107018093090180916A
:1002D00005018E3F39F588E08093070123C08091A6
:1002E00005018F3F39F481E0809308018091070177
:1002F00080930901809105018F3FA1F489E0ECCF43
:10030000809105018F3F71F48AE0E6CF809105016D
:100310008F3F41F48BE0E0CF809105018F3F11F4D6
:1003200010920701809105018F5F80930501FF9175
:10033000EF919F918F910F900FBE0F901F90189586
:10034000BF92CF92DF92EF92FF920F931F93CF93C2
:10035000DF9317B854986CD313D40DD480E000D435
:1003600081E0FED382E0FCD383E0FAD326B189B1E9
:1003700090E08871907053E0880F991F5A95E1F7CB
:100380002F73282B2093000180E0E82FF0E0DF019D
:10039000A55BBE4F1C92E553FE4F10828F5F8038E5
:1003A000A1F780E090E02FE7FC01E55FFE4F20839E
:1003B000019680349105C1F782E084BD85BD8093AC
:1003C0006E0083E187BD789442E4B42E80910401ED
:1003D000813009F0D2C01092040180910101813076
:1003E00009F0A8C0C0E0D0E037E0C32ED12CCC0E7D
:1003F000DD1EF601E55BFE4F8081FE01E55FFE4FED
:1004000080838E010F5F1F4F26E0E22EF12CEC0E51
:10041000FD1EF701E55BFE4F8081F801E55FFE4FB1
:1004200080839E012E5F3F4FAE014B5F5F4FFA010D
:10043000E55BFE4F8081F901E55FFE4F8083DE01C1
:100440001396CE010496FC01E55BFE4F6081FD0131
:10045000E55FFE4F6083A55BBE4F6C91855F9E4F4D
:10046000FC016083255B3E4FF9018081455F5E4F53
:10047000FA018083055B1E4FF80180812BE031E09B
:10048000E20EF31EF7018083FE01E55BFE4F8081E3
:10049000C20ED31EF6018083FE013896DF01A55BF4
:1004A000BE4F8C91E20FF31F8083FE013996DF016E
:1004B000A55BBE4F8C91E20FF31F8083FE013A963D
:1004C000DF01A55BBE4F8C91E20FF31F8083FE011D
:1004D0003B96DF01A55BBE4F8C91E20FF31F80833B
:1004E000FE013C96DF01A55BBE4F8C91E20FF31F2E
:1004F0008083FE013D96DF01A55BBE4F8C91E20F2C
:10050000F31F8083FE013E96DF01A55BBE4F8C91F9
:10051000E20FF31F8083FE013F96DF01A55BBE4F14
:100520008C91E20FF31F80836096C034D10509F0EF
:100530005BCF1DC0809101018230C9F480914B01D5
:10054000982F9F70891BE82FF0E0292F30E098301A
:1005500038F0E20FF31F80914C01E55FFE4F06C0BB
:10056000E21BF30B80914C01EE5EFE4F80831092F4
:100570000101109203011092020180910801813063
:1005800009F024CF1092080180910901E82FF0E0D2
:10059000E930F10508F01ACFEA5DFF4F09940DB478
:1005A00007FEFDCF1EBC0DB407FEFDCF1EBC0DB473
:1005B00007FEFDCF49D28B2D8A95F1F780E08CC0E4
:1005C000809105018A3F08F07AC0909105018091E1
:1005D0000B0120E0981708F421E09091050180912B
:1005E0000C01981708F422609091050180910D018B
:1005F000981708F424609091050180910E019817D6
:1006000008F428609091050180910F01981708F473
:1006100020619091050180911001981708F42062E3
:100620009091050180911101981708F42064909130
:10063000050180911201981708F420680DB407FE97
:10064000FDCF2EBD909105018091130120E09817F8
:1006500008F421E09091050180911401981708F4A5
:1006600022609091050180911501981708F424608B
:100670009091050180911601981708F428609091D7
:10068000050180911701981708F4206190910501E8
:1006900080911801981708F42062909105018091CB
:1006A0001901981708F420649091050180911A01AE
:1006B000981708F420680DB407FEFDCFA9C10DB44A
:1006C00007FEFDCF1EBC0DB407FEFDCFAAC10DB4C1
:1006D00007FEFDCFB9D181E06FEF4FEF03D276CEA9
:1006E000809105018A3F08F07AC0909105018091C0
:1006F0001B0120E0981708F421E0909105018091FA
:100700001C01981708F422609091050180911D0149
:10071000981708F424609091050180911E019817A4
:1007200008F428609091050180911F01981708F442
:1007300020619091050180912001981708F42062B2
:100740009091050180912101981708F420649091FF
:10075000050180912201981708F420680DB407FE66
:10076000FDCF2EBD909105018091230120E09817C7
:1007700008F421E09091050180912401981708F474
:1007800022609091050180912501981708F424605A
:100790009091050180912601981708F428609091A6
:1007A000050180912701981708F4206190910501B7
:1007B00080912801981708F420629091050180919A
:1007C0002901981708F420649091050180912A016D
:1007D000981708F420680DB407FEFDCF19C10DB4B9
:1007E00007FEFDCF1EBC0DB407FEFDCF1AC10DB430
:1007F00007FEFDCF29D182E06FCF809105018A3FAE
:1008000008F07AC09091050180912B0120E09817A3
:1008100008F421E09091050180912C01981708F4CB
:1008200022609091050180912D01981708F42460B1
:100830009091050180912E01981708F428609091FD
:10084000050180912F01981708F42061909105010E
:1008500080913001981708F42062909105018091F1
:100860003101981708F420649091050180913201BC
:10087000981708F420680DB407FEFDCF2EBD9091A7
:1008800005018091330120E0981708F421E0909150
:10089000050180913401981708F4226090910501B8
:1008A00080913501981708F424609091050180919A
:1008B0003601981708F4286090910501809137015E
:1008C000981708F4206190910501809138019817DC
:1008D00008F420629091050180913901981708F47D
:1008E00020649091050180913A01981708F42068DE
:1008F0000DB407FEFDCF8CC00DB407FEFDCF1EBCAE
:100900000DB407FEFDCF8DC00DB407FEFDCF9CD00A
:1009100083E0E2CE809105018A3F08F07BC0909190
:10092000050180913B0120E0981708F421E09091A7
:10093000050180913C01981708F42260909105010F
:1009400080913D01981708F42460909105018091F1
:100950003E01981708F428609091050180913F01AD
:10096000981708F420619091050180914001981733
:1009700008F420629091050180914101981708F4D4
:1009800020649091050180914201981708F4206835
:100990000DB407FEFDCF2EBD90910501809143015E
:1009A00020E0981708F421E090910501809144011E
:1009B000981708F4226090910501809145019817DD
:1009C00008F424609091050180914601981708F47D
:1009D00028609091050180914701981708F42061E3
:1009E0009091050180914801981708F42062909138
:1009F000050180914901981708F420649091050140
:100A000080914A01981708F420680DB407FEFDCFC5
:100A10002EBDDCCC0DB407FEFDCF1EBC0DB407FE11
:100A2000FDCF1EBCD3CC0DB407FEFDCF0DD0CECC78
:100A300084B1827C84B984B18D6284B980E58CBD37
:100A400081E08DBD2A9A08952A9A08952A980895DA
:100A50008EBD0DB407FEFDCF08951EBC0DB407FE7C
:100A6000FDCF8EB508958EBD0DB407FEFDCF8EB5BA
:100A70000895FC0190E007C080818EBD0DB407FE93
:100A8000FDCF9F5F31969617B8F30895FC0190E073
:100A900007C01EBC0DB407FEFDCF8EB581939F5FCE
:100AA0009617B8F30895CF93DF93EC01DB0120E0B4
:100AB00030E00CC0FE01E20FF31F80818EBD0DB44B
:100AC00007FEFDCF8EB58D932F5F3F4F241790F318
:100AD000DF91CF9108951F93162FBADF812FB8DFD2
:100AE0001F910895FF920F931F93162FF42E082F36
:100AF0000770ACDF000F802F8064AADF82E1A8DFDF
:100B0000812FA6DF8F2DA4DF1F910F91FF900895F5
:100B10000F931F93162F082F077098DF000F802F59
:100B2000816496DF812F94DF98DF182F8DDF812F6E
:100B30001F910F910895FF920F931F93162FF42E7C
:100B4000082F077083DF000F802F806481DF812FE3
:100B50007FDF8F2D7DDF78DF1F910F91FF9008954C
:100B60001F93182F60E040E0E6DF812F61E040E056
:100B7000E2DF1F91089580E06AE048E2DCDF08953B
:100B800083E08093C0008CE98093C10086E080936D
:100B9000C2001092C50085E18093C4005298529A19
:080BA0005A980895F894FFCF64
:00000001FF
